:020000040000FA
:020000000000FE
:020001000001FC
:020002000002FA
:020003000003F8
:020004000004F6
:020005000005F4
:020006000006F2
:020007000007F0
:020008000008EE
:020009000009EC
:02000A00000AEA
:02000B00000BE8
:02000C00000CE6
:02000D00000DE4
:02000E00000EE2
:02000F00000FE0
:02001000000EE0
:02001100000DE0
:02001200000CE0
:02001300000BE0
:02001400000AE0
:020015000009E0
:020016000008E0
:020017000007E0
:020018000006E0
:020019000005E0
:02001A000004E0
:02001B000003E0
:02001C000002E0
:02001D000001E0
:02001E000000E0
:02001F000000DF
:020020000010CE
:020021000011CC
:020022000012CA
:020023000013C8
:020024000014C6
:020025000015C4
:020026000016C2
:020027000017C0
:020028000018BE
:020029000019BC
:02002A00001ABA
:02002B00001BB8
:02002C00001CB6
:02002D00001DB4
:02002E00001EB2
:02002F00001FB0
:02003000001EB0
:02003100001DB0
:02003200001CB0
:02003300001BB0
:02003400001AB0
:020035000019B0
:020036000018B0
:020037000017B0
:020038000016B0
:020039000015B0
:02003A000014B0
:02003B000013B0
:02003C000012B0
:02003D000011B0
:02003E000010B0
:02003F000000BF
:0200400000209E
:0200410000219C
:0200420000229A
:02004300002398
:02004400002496
:02004500002594
:02004600002692
:02004700002790
:0200480000288E
:0200490000298C
:02004A00002A8A
:02004B00002B88
:02004C00002C86
:02004D00002D84
:02004E00002E82
:02004F00002F80
:02005000002E80
:02005100002D80
:02005200002C80
:02005300002B80
:02005400002A80
:02005500002980
:02005600002880
:02005700002780
:02005800002680
:02005900002580
:02005A00002480
:02005B00002380
:02005C00002280
:02005D00002180
:02005E00002080
:02005F0000009F
:0200600000306E
:0200610000316C
:0200620000326A
:02006300003368
:02006400003466
:02006500003564
:02006600003662
:02006700003760
:0200680000385E
:0200690000395C
:02006A00003A5A
:02006B00003B58
:02006C00003C56
:02006D00003D54
:02006E00003E52
:02006F00003F50
:02007000003E50
:02007100003D50
:02007200003C50
:02007300003B50
:02007400003A50
:02007500003950
:02007600003850
:02007700003750
:02007800003650
:02007900003550
:02007A00003450
:02007B00003350
:02007C00003250
:02007D00003150
:02007E00003050
:02007F0000007F
:0200800000403E
:0200810000413C
:0200820000423A
:02008300004338
:02008400004436
:02008500004534
:02008600004632
:02008700004730
:0200880000482E
:0200890000492C
:02008A00004A2A
:02008B00004B28
:02008C00004C26
:02008D00004D24
:02008E00004E22
:02008F00004F20
:02009000004E20
:02009100004D20
:02009200004C20
:02009300004B20
:02009400004A20
:02009500004920
:02009600004820
:02009700004720
:02009800004620
:02009900004520
:02009A00004420
:02009B00004320
:02009C00004220
:02009D00004120
:02009E00004020
:02009F0000005F
:0200A00000500E
:0200A10000510C
:0200A20000520A
:0200A300005308
:0200A400005406
:0200A500005504
:0200A600005602
:0200A700005700
:0200A8000058FE
:0200A9000059FC
:0200AA00005AFA
:0200AB00005BF8
:0200AC00005CF6
:0200AD00005DF4
:0200AE00005EF2
:0200AF00005FF0
:0200B000005EF0
:0200B100005DF0
:0200B200005CF0
:0200B300005BF0
:0200B400005AF0
:0200B5000059F0
:0200B6000058F0
:0200B7000057F0
:0200B8000056F0
:0200B9000055F0
:0200BA000054F0
:0200BB000053F0
:0200BC000052F0
:0200BD000051F0
:0200BE000050F0
:0200BF0000003F
:0200C0000060DE
:0200C1000061DC
:0200C2000062DA
:0200C3000063D8
:0200C4000064D6
:0200C5000065D4
:0200C6000066D2
:0200C7000067D0
:0200C8000068CE
:0200C9000069CC
:0200CA00006ACA
:0200CB00006BC8
:0200CC00006CC6
:0200CD00006DC4
:0200CE00006EC2
:0200CF00006FC0
:0200D000006EC0
:0200D100006DC0
:0200D200006CC0
:0200D300006BC0
:0200D400006AC0
:0200D5000069C0
:0200D6000068C0
:0200D7000067C0
:0200D8000066C0
:0200D9000065C0
:0200DA000064C0
:0200DB000063C0
:0200DC000062C0
:0200DD000061C0
:0200DE000060C0
:0200DF0000001F
:0200E0000070AE
:0200E1000071AC
:0200E2000072AA
:0200E3000073A8
:0200E4000074A6
:0200E5000075A4
:0200E6000076A2
:0200E7000077A0
:0200E80000789E
:0200E90000799C
:0200EA00007A9A
:0200EB00007B98
:0200EC00007C96
:0200ED00007D94
:0200EE00007E92
:0200EF00007F90
:0200F000007E90
:0200F100007D90
:0200F200007C90
:0200F300007B90
:0200F400007A90
:0200F500007990
:0200F600007890
:0200F700007790
:0200F800007690
:0200F900007590
:0200FA00007490
:0200FB00007390
:0200FC00007290
:0200FD00007190
:0200FE00007090
:0200FF000000FF
:0201000000807D
:0201010000817B
:02010200008279
:02010300008377
:02010400008475
:02010500008573
:02010600008671
:0201070000876F
:0201080000886D
:0201090000896B
:02010A00008A69
:02010B00008B67
:02010C00008C65
:02010D00008D63
:02010E00008E61
:02010F00008F5F
:02011000008E5F
:02011100008D5F
:02011200008C5F
:02011300008B5F
:02011400008A5F
:0201150000895F
:0201160000885F
:0201170000875F
:0201180000865F
:0201190000855F
:02011A0000845F
:02011B0000835F
:02011C0000825F
:02011D0000815F
:02011E0000805F
:02011F000000DE
:0201200000904D
:0201210000914B
:02012200009249
:02012300009347
:02012400009445
:02012500009543
:02012600009641
:0201270000973F
:0201280000983D
:0201290000993B
:02012A00009A39
:02012B00009B37
:02012C00009C35
:02012D00009D33
:02012E00009E31
:02012F00009F2F
:02013000009E2F
:02013100009D2F
:02013200009C2F
:02013300009B2F
:02013400009A2F
:0201350000992F
:0201360000982F
:0201370000972F
:0201380000962F
:0201390000952F
:02013A0000942F
:02013B0000932F
:02013C0000922F
:02013D0000912F
:02013E0000902F
:02013F000000BE
:0201400000A01D
:0201410000A11B
:0201420000A219
:0201430000A317
:0201440000A415
:0201450000A513
:0201460000A611
:0201470000A70F
:0201480000A80D
:0201490000A90B
:02014A0000AA09
:02014B0000AB07
:02014C0000AC05
:02014D0000AD03
:02014E0000AE01
:02014F0000AFFF
:0201500000AEFF
:0201510000ADFF
:0201520000ACFF
:0201530000ABFF
:0201540000AAFF
:0201550000A9FF
:0201560000A8FF
:0201570000A7FF
:0201580000A6FF
:0201590000A5FF
:02015A0000A4FF
:02015B0000A3FF
:02015C0000A2FF
:02015D0000A1FF
:02015E0000A0FF
:02015F0000009E
:0201600000B0ED
:0201610000B1EB
:0201620000B2E9
:0201630000B3E7
:0201640000B4E5
:0201650000B5E3
:0201660000B6E1
:0201670000B7DF
:0201680000B8DD
:0201690000B9DB
:02016A0000BAD9
:02016B0000BBD7
:02016C0000BCD5
:02016D0000BDD3
:02016E0000BED1
:02016F0000BFCF
:0201700000BECF
:0201710000BDCF
:0201720000BCCF
:0201730000BBCF
:0201740000BACF
:0201750000B9CF
:0201760000B8CF
:0201770000B7CF
:0201780000B6CF
:0201790000B5CF
:02017A0000B4CF
:02017B0000B3CF
:02017C0000B2CF
:02017D0000B1CF
:02017E0000B0CF
:02017F0000007E
:0201800000C0BD
:0201810000C1BB
:0201820000C2B9
:0201830000C3B7
:0201840000C4B5
:0201850000C5B3
:0201860000C6B1
:0201870000C7AF
:0201880000C8AD
:0201890000C9AB
:02018A0000CAA9
:02018B0000CBA7
:02018C0000CCA5
:02018D0000CDA3
:02018E0000CEA1
:02018F0000CF9F
:0201900000CE9F
:0201910000CD9F
:0201920000CC9F
:0201930000CB9F
:0201940000CA9F
:0201950000C99F
:0201960000C89F
:0201970000C79F
:0201980000C69F
:0201990000C59F
:02019A0000C49F
:02019B0000C39F
:02019C0000C29F
:02019D0000C19F
:02019E0000C09F
:02019F0000005E
:0201A00000D08D
:0201A10000D18B
:0201A20000D289
:0201A30000D387
:0201A40000D485
:0201A50000D583
:0201A60000D681
:0201A70000D77F
:0201A80000D87D
:0201A90000D97B
:0201AA0000DA79
:0201AB0000DB77
:0201AC0000DC75
:0201AD0000DD73
:0201AE0000DE71
:0201AF0000DF6F
:0201B00000DE6F
:0201B10000DD6F
:0201B20000DC6F
:0201B30000DB6F
:0201B40000DA6F
:0201B50000D96F
:0201B60000D86F
:0201B70000D76F
:0201B80000D66F
:0201B90000D56F
:0201BA0000D46F
:0201BB0000D36F
:0201BC0000D26F
:0201BD0000D16F
:0201BE0000D06F
:0201BF0000003E
:0201C00000E05D
:0201C10000E15B
:0201C20000E259
:0201C30000E357
:0201C40000E455
:0201C50000E553
:0201C60000E651
:0201C70000E74F
:0201C80000E84D
:0201C90000E94B
:0201CA0000EA49
:0201CB0000EB47
:0201CC0000EC45
:0201CD0000ED43
:0201CE0000EE41
:0201CF0000EF3F
:0201D00000EE3F
:0201D10000ED3F
:0201D20000EC3F
:0201D30000EB3F
:0201D40000EA3F
:0201D50000E93F
:0201D60000E83F
:0201D70000E73F
:0201D80000E63F
:0201D90000E53F
:0201DA0000E43F
:0201DB0000E33F
:0201DC0000E23F
:0201DD0000E13F
:0201DE0000E03F
:0201DF0000001E
:0201E00000F02D
:0201E10000F12B
:0201E20000F229
:0201E30000F327
:0201E40000F425
:0201E50000F523
:0201E60000F621
:0201E70000F71F
:0201E80000F81D
:0201E90000F91B
:0201EA0000FA19
:0201EB0000FB17
:0201EC0000FC15
:0201ED0000FD13
:0201EE0000FE11
:0201EF0000FF0F
:0201F00000FE0F
:0201F10000FD0F
:0201F20000FC0F
:0201F30000FB0F
:0201F40000FA0F
:0201F50000F90F
:0201F60000F80F
:0201F70000F70F
:0201F80000F60F
:0201F90000F50F
:0201FA0000F40F
:0201FB0000F30F
:0201FC0000F20F
:0201FD0000F10F
:0201FE0000F00F
:0201FF000000FE
:020200000100FB
:020201000101F9
:020202000102F7
:020203000103F5
:020204000104F3
:020205000105F1
:020206000106EF
:020207000107ED
:020208000108EB
:020209000109E9
:02020A00010AE7
:02020B00010BE5
:02020C00010CE3
:02020D00010DE1
:02020E00010EDF
:02020F00010FDD
:02021000010EDD
:02021100010DDD
:02021200010CDD
:02021300010BDD
:02021400010ADD
:020215000109DD
:020216000108DD
:020217000107DD
:020218000106DD
:020219000105DD
:02021A000104DD
:02021B000103DD
:02021C000102DD
:02021D000101DD
:02021E000100DD
:02021F000000DD
:020220000110CB
:020221000111C9
:020222000112C7
:020223000113C5
:020224000114C3
:020225000115C1
:020226000116BF
:020227000117BD
:020228000118BB
:020229000119B9
:02022A00011AB7
:02022B00011BB5
:02022C00011CB3
:02022D00011DB1
:02022E00011EAF
:02022F00011FAD
:02023000011EAD
:02023100011DAD
:02023200011CAD
:02023300011BAD
:02023400011AAD
:020235000119AD
:020236000118AD
:020237000117AD
:020238000116AD
:020239000115AD
:02023A000114AD
:02023B000113AD
:02023C000112AD
:02023D000111AD
:02023E000110AD
:02023F000000BD
:0202400001209B
:02024100012199
:02024200012297
:02024300012395
:02024400012493
:02024500012591
:0202460001268F
:0202470001278D
:0202480001288B
:02024900012989
:02024A00012A87
:02024B00012B85
:02024C00012C83
:02024D00012D81
:02024E00012E7F
:02024F00012F7D
:02025000012E7D
:02025100012D7D
:02025200012C7D
:02025300012B7D
:02025400012A7D
:0202550001297D
:0202560001287D
:0202570001277D
:0202580001267D
:0202590001257D
:02025A0001247D
:02025B0001237D
:02025C0001227D
:02025D0001217D
:02025E0001207D
:02025F0000009D
:0202600001306B
:02026100013169
:02026200013267
:02026300013365
:02026400013463
:02026500013561
:0202660001365F
:0202670001375D
:0202680001385B
:02026900013959
:02026A00013A57
:02026B00013B55
:02026C00013C53
:02026D00013D51
:02026E00013E4F
:02026F00013F4D
:02027000013E4D
:02027100013D4D
:02027200013C4D
:02027300013B4D
:02027400013A4D
:0202750001394D
:0202760001384D
:0202770001374D
:0202780001364D
:0202790001354D
:02027A0001344D
:02027B0001334D
:02027C0001324D
:02027D0001314D
:02027E0001304D
:02027F0000007D
:0202800001403B
:02028100014139
:02028200014237
:02028300014335
:02028400014433
:02028500014531
:0202860001462F
:0202870001472D
:0202880001482B
:02028900014929
:02028A00014A27
:02028B00014B25
:02028C00014C23
:02028D00014D21
:02028E00014E1F
:02028F00014F1D
:02029000014E1D
:02029100014D1D
:02029200014C1D
:02029300014B1D
:02029400014A1D
:0202950001491D
:0202960001481D
:0202970001471D
:0202980001461D
:0202990001451D
:02029A0001441D
:02029B0001431D
:02029C0001421D
:02029D0001411D
:02029E0001401D
:02029F0000005D
:0202A00001500B
:0202A100015109
:0202A200015207
:0202A300015305
:0202A400015403
:0202A500015501
:0202A6000156FF
:0202A7000157FD
:0202A8000158FB
:0202A9000159F9
:0202AA00015AF7
:0202AB00015BF5
:0202AC00015CF3
:0202AD00015DF1
:0202AE00015EEF
:0202AF00015FED
:0202B000015EED
:0202B100015DED
:0202B200015CED
:0202B300015BED
:0202B400015AED
:0202B5000159ED
:0202B6000158ED
:0202B7000157ED
:0202B8000156ED
:0202B9000155ED
:0202BA000154ED
:0202BB000153ED
:0202BC000152ED
:0202BD000151ED
:0202BE000150ED
:0202BF0000003D
:0202C0000160DB
:0202C1000161D9
:0202C2000162D7
:0202C3000163D5
:0202C4000164D3
:0202C5000165D1
:0202C6000166CF
:0202C7000167CD
:0202C8000168CB
:0202C9000169C9
:0202CA00016AC7
:0202CB00016BC5
:0202CC00016CC3
:0202CD00016DC1
:0202CE00016EBF
:0202CF00016FBD
:0202D000016EBD
:0202D100016DBD
:0202D200016CBD
:0202D300016BBD
:0202D400016ABD
:0202D5000169BD
:0202D6000168BD
:0202D7000167BD
:0202D8000166BD
:0202D9000165BD
:0202DA000164BD
:0202DB000163BD
:0202DC000162BD
:0202DD000161BD
:0202DE000160BD
:0202DF0000001D
:0202E0000170AB
:0202E1000171A9
:0202E2000172A7
:0202E3000173A5
:0202E4000174A3
:0202E5000175A1
:0202E60001769F
:0202E70001779D
:0202E80001789B
:0202E900017999
:0202EA00017A97
:0202EB00017B95
:0202EC00017C93
:0202ED00017D91
:0202EE00017E8F
:0202EF00017F8D
:0202F000017E8D
:0202F100017D8D
:0202F200017C8D
:0202F300017B8D
:0202F400017A8D
:0202F50001798D
:0202F60001788D
:0202F70001778D
:0202F80001768D
:0202F90001758D
:0202FA0001748D
:0202FB0001738D
:0202FC0001728D
:0202FD0001718D
:0202FE0001708D
:0202FF000000FD
:0203000001807A
:02030100018178
:02030200018276
:02030300018374
:02030400018472
:02030500018570
:0203060001866E
:0203070001876C
:0203080001886A
:02030900018968
:02030A00018A66
:02030B00018B64
:02030C00018C62
:02030D00018D60
:02030E00018E5E
:02030F00018F5C
:02031000018E5C
:02031100018D5C
:02031200018C5C
:02031300018B5C
:02031400018A5C
:0203150001895C
:0203160001885C
:0203170001875C
:0203180001865C
:0203190001855C
:02031A0001845C
:02031B0001835C
:02031C0001825C
:02031D0001815C
:02031E0001805C
:02031F000000DC
:0203200001904A
:02032100019148
:02032200019246
:02032300019344
:02032400019442
:02032500019540
:0203260001963E
:0203270001973C
:0203280001983A
:02032900019938
:02032A00019A36
:02032B00019B34
:02032C00019C32
:02032D00019D30
:02032E00019E2E
:02032F00019F2C
:02033000019E2C
:02033100019D2C
:02033200019C2C
:02033300019B2C
:02033400019A2C
:0203350001992C
:0203360001982C
:0203370001972C
:0203380001962C
:0203390001952C
:02033A0001942C
:02033B0001932C
:02033C0001922C
:02033D0001912C
:02033E0001902C
:02033F000000BC
:0203400001A01A
:0203410001A118
:0203420001A216
:0203430001A314
:0203440001A412
:0203450001A510
:0203460001A60E
:0203470001A70C
:0203480001A80A
:0203490001A908
:02034A0001AA06
:02034B0001AB04
:02034C0001AC02
:02034D0001AD00
:02034E0001AEFE
:02034F0001AFFC
:0203500001AEFC
:0203510001ADFC
:0203520001ACFC
:0203530001ABFC
:0203540001AAFC
:0203550001A9FC
:0203560001A8FC
:0203570001A7FC
:0203580001A6FC
:0203590001A5FC
:02035A0001A4FC
:02035B0001A3FC
:02035C0001A2FC
:02035D0001A1FC
:02035E0001A0FC
:02035F0000009C
:0203600001B0EA
:0203610001B1E8
:0203620001B2E6
:0203630001B3E4
:0203640001B4E2
:0203650001B5E0
:0203660001B6DE
:0203670001B7DC
:0203680001B8DA
:0203690001B9D8
:02036A0001BAD6
:02036B0001BBD4
:02036C0001BCD2
:02036D0001BDD0
:02036E0001BECE
:02036F0001BFCC
:0203700001BECC
:0203710001BDCC
:0203720001BCCC
:0203730001BBCC
:0203740001BACC
:0203750001B9CC
:0203760001B8CC
:0203770001B7CC
:0203780001B6CC
:0203790001B5CC
:02037A0001B4CC
:02037B0001B3CC
:02037C0001B2CC
:02037D0001B1CC
:02037E0001B0CC
:02037F0000007C
:0203800001C0BA
:0203810001C1B8
:0203820001C2B6
:0203830001C3B4
:0203840001C4B2
:0203850001C5B0
:0203860001C6AE
:0203870001C7AC
:0203880001C8AA
:0203890001C9A8
:02038A0001CAA6
:02038B0001CBA4
:02038C0001CCA2
:02038D0001CDA0
:02038E0001CE9E
:02038F0001CF9C
:0203900001CE9C
:0203910001CD9C
:0203920001CC9C
:0203930001CB9C
:0203940001CA9C
:0203950001C99C
:0203960001C89C
:0203970001C79C
:0203980001C69C
:0203990001C59C
:02039A0001C49C
:02039B0001C39C
:02039C0001C29C
:02039D0001C19C
:02039E0001C09C
:02039F0000005C
:0203A00001D08A
:0203A10001D188
:0203A20001D286
:0203A30001D384
:0203A40001D482
:0203A50001D580
:0203A60001D67E
:0203A70001D77C
:0203A80001D87A
:0203A90001D978
:0203AA0001DA76
:0203AB0001DB74
:0203AC0001DC72
:0203AD0001DD70
:0203AE0001DE6E
:0203AF0001DF6C
:0203B00001DE6C
:0203B10001DD6C
:0203B20001DC6C
:0203B30001DB6C
:0203B40001DA6C
:0203B50001D96C
:0203B60001D86C
:0203B70001D76C
:0203B80001D66C
:0203B90001D56C
:0203BA0001D46C
:0203BB0001D36C
:0203BC0001D26C
:0203BD0001D16C
:0203BE0001D06C
:0203BF0000003C
:0203C00001E05A
:0203C10001E158
:0203C20001E256
:0203C30001E354
:0203C40001E452
:0203C50001E550
:0203C60001E64E
:0203C70001E74C
:0203C80001E84A
:0203C90001E948
:0203CA0001EA46
:0203CB0001EB44
:0203CC0001EC42
:0203CD0001ED40
:0203CE0001EE3E
:0203CF0001EF3C
:0203D00001EE3C
:0203D10001ED3C
:0203D20001EC3C
:0203D30001EB3C
:0203D40001EA3C
:0203D50001E93C
:0203D60001E83C
:0203D70001E73C
:0203D80001E63C
:0203D90001E53C
:0203DA0001E43C
:0203DB0001E33C
:0203DC0001E23C
:0203DD0001E13C
:0203DE0001E03C
:0203DF0000001C
:0203E00001F02A
:0203E10001F128
:0203E20001F226
:0203E30001F324
:0203E40001F422
:0203E50001F520
:0203E60001F61E
:0203E70001F71C
:0203E80001F81A
:0203E90001F918
:0203EA0001FA16
:0203EB0001FB14
:0203EC0001FC12
:0203ED0001FD10
:0203EE0001FE0E
:0203EF0001FF0C
:0203F00001FE0C
:0203F10001FD0C
:0203F20001FC0C
:0203F30001FB0C
:0203F40001FA0C
:0203F50001F90C
:0203F60001F80C
:0203F70001F70C
:0203F80001F60C
:0203F90001F50C
:0203FA0001F40C
:0203FB0001F30C
:0203FC0001F20C
:0203FD0001F10C
:0203FE0001F00C
:0203FF000000FC
:020400000200F8
:020401000201F6
:020402000202F4
:020403000203F2
:020404000204F0
:020405000205EE
:020406000206EC
:020407000207EA
:020408000208E8
:020409000209E6
:02040A00020AE4
:02040B00020BE2
:02040C00020CE0
:02040D00020DDE
:02040E00020EDC
:02040F00020FDA
:02041000020EDA
:02041100020DDA
:02041200020CDA
:02041300020BDA
:02041400020ADA
:020415000209DA
:020416000208DA
:020417000207DA
:020418000206DA
:020419000205DA
:02041A000204DA
:02041B000203DA
:02041C000202DA
:02041D000201DA
:02041E000200DA
:00000001ff
